{
  "contractName": "StorageData",
  "abi": [
    {
      "constant": true,
      "inputs": [],
      "name": "doSomething",
      "outputs": [
        {
          "internalType": "string",
          "name": "_test",
          "type": "string"
        }
      ],
      "payable": false,
      "stateMutability": "pure",
      "type": "function"
    },
    {
      "constant": true,
      "inputs": [],
      "name": "doSomething1",
      "outputs": [
        {
          "internalType": "uint256",
          "name": "_test",
          "type": "uint256"
        }
      ],
      "payable": false,
      "stateMutability": "pure",
      "type": "function"
    },
    {
      "constant": false,
      "inputs": [
        {
          "internalType": "string",
          "name": "_name",
          "type": "string"
        }
      ],
      "name": "setData",
      "outputs": [],
      "payable": false,
      "stateMutability": "nonpayable",
      "type": "function"
    },
    {
      "constant": true,
      "inputs": [],
      "name": "getData",
      "outputs": [
        {
          "internalType": "string",
          "name": "_name",
          "type": "string"
        }
      ],
      "payable": false,
      "stateMutability": "view",
      "type": "function"
    }
  ],
  "bytecode": "0x608060405234801561001057600080fd5b50610419806100206000396000f3fe608060405234801561001057600080fd5b506004361061004c5760003560e01c80633bc5de301461005157806347064d6a146100d4578063826926791461018f5780639f3dbe3714610212575b600080fd5b610059610230565b6040518080602001828103825283818151815260200191508051906020019080838360005b8381101561009957808201518184015260208101905061007e565b50505050905090810190601f1680156100c65780820380516001836020036101000a031916815260200191505b509250505060405180910390f35b61018d600480360360208110156100ea57600080fd5b810190808035906020019064010000000081111561010757600080fd5b82018360208201111561011957600080fd5b8035906020019184600183028401116401000000008311171561013b57600080fd5b91908080601f016020809104026020016040519081016040528093929190818152602001838380828437600081840152601f19601f8201169050808301925050505050505091929192905050506102d2565b005b6101976102ec565b6040518080602001828103825283818151815260200191508051906020019080838360005b838110156101d75780820151818401526020810190506101bc565b50505050905090810190601f1680156102045780820380516001836020036101000a031916815260200191505b509250505060405180910390f35b61021a61030f565b6040518082815260200191505060405180910390f35b606060008054600181600116156101000203166002900480601f0160208091040260200160405190810160405280929190818152602001828054600181600116156101000203166002900480156102c85780601f1061029d576101008083540402835291602001916102c8565b820191906000526020600020905b8154815290600101906020018083116102ab57829003601f168201915b5050505050905090565b80600090805190602001906102e892919061031b565b5050565b60606040518060600160405280602481526020016103c160249139905080905090565b60006001905080905090565b828054600181600116156101000203166002900490600052602060002090601f016020900481019282601f1061035c57805160ff191683800117855561038a565b8280016001018555821561038a579182015b8281111561038957825182559160200191906001019061036e565b5b509050610397919061039b565b5090565b6103bd91905b808211156103b95760008160009055506001016103a1565b5090565b9056fe646f20736f6d657468696e6720666f7220796f757220627269676874206675747572652ea265627a7a7231582051fafb3e51bf314c7885d94a64748e9317214a0abda2bb9766b2fc7a18e3773264736f6c63430005100032",
  "source": "pragma solidity ^0.5.16;\r\n\r\n/// @title A title that should describe the contract/interface\r\n/// @author The name of the author\r\n/// @notice Explain to an end user what this does\r\n/// @dev Explain to a developer any extra details\r\n\r\ncontract StorageData {\r\n    string name;\r\n\r\n    function doSomething() public pure returns (string memory _test) {\r\n        _test = \"do something for your bright future.\";\r\n        return _test;\r\n    }\r\n\r\n    function doSomething1() public pure returns (uint _test) {\r\n        _test = 1;\r\n        return _test;\r\n    }\r\n\r\n    function setData(string memory _name) public {\r\n        name = _name;\r\n    }\r\n\r\n    function getData() public view returns (string memory _name) {\r\n        return name;\r\n    }\r\n}\r\n",
  "sourcePath": "D:/BlockXsociety/IntegrateSolidity_Web3/back_end/contracts/storageData.sol",
  "compiler": {
    "name": "solc",
    "version": "0.5.16+commit.9c3226ce.Emscripten.clang"
  },
  "schemaVersion": "3.4.0",
  "updatedAt": "2021-05-04T21:23:08.516Z",
  "networkType": "ethereum",
  "devdoc": {
    "author": "The name of the author",
    "details": "Explain to a developer any extra details",
    "methods": {},
    "title": "A title that should describe the contract/interface"
  },
  "userdoc": {
    "methods": {},
    "notice": "Explain to an end user what this does"
  }
}